:0600000000F03DEF1EF0D0
:103C0200FFFF03003300FFFF116E11C083FF81909D
:103C120081928184000E0C6E010E0B6E56EC1EF02A
:103C220081941200FFFFFFFF116E11C083FF81809C
:103C320081928184000E0C6E010E0B6E56EC1EF00A
:103C420081941200FFFFFFFF000E0C6E010E0B6E3F
:103C520076EC1EF0C284FFFFC2B4FDD7C3CF17F0CB
:103C6200186AC4CF15F0166A000E0C6EFA0E0B6EAF
:103C720076EC1EF01200FFFF040EF66E3C0EF76E9D
:103C8200000EF86E00EE15F010EE04F00900F5CF0C
:103C9200EEFFE550E150FAE100EE01F00A0EEE6AA5
:103CA200E806FDE100018BEF1FF0FFFF000E0E6E34
:103CB200000E0D6E10D0FFFF000E106E000E0F6E84
:103CC200FFFF0F4A102A105004E1870E0F5CD8A0A4
:103CD200F7D70D4A0E2AFFFF0B500D5C0C500E5801
:103CE200D8B01200FFFFE7D7FFFFFFFF000E0E6EF6
:103CF200000E0D6E12D0FFFF000E106E000E0F6E42
:103D0200FFFF0F4A102A10BEFBD7105004E1050E28
:103D12000F5CD8A0F5D70D4A0E2AFFFF0B500D5CA1
:103D22000C500E58D8B01200FFFFE5D7FFFFFFFF7F
:103D3200FFFF000E106E0CAE06D00B6C0C1ED8B03E
:103D42000C2A010E106EFFFF0EAE04D00D6C0E1E7B
:103D5200D8B00E2AFFFF0D500E10D8B41CD0010EA1
:103D62000F6E05D0FFFFD8900D360E360F2AFFFFDB
:103D72000EAEF8D7FFFF0D500B5C0E500C58D8A0BA
:103D820004D00D500B5E0E500C5AFFFFD8900E322D
:103D92000D320F2EEFD7FFFF1050D8B404D00B6CAA
:103DA2000C1ED8B00C2AFFFF0BC00BF00CC00CF09D
:103DB2001200FFFFFFFF000E106E0EAE06D00D6C5C
:103DC2000E1ED8B00E2A010E106EFFFF0CAE06D0EA
:103DD2000B6C0C1ED8B00C2A010E101AFFFF000E3D
:103DE200126E000E116E0D500E10D8B420D0010EBE
:103DF2000F6E05D0FFFFD8900D360E360F2AFFFF4B
:103E02000EAEF8D7FFFFD890113612360D500B5C6C
:103E12000E500C58D8A005D00D500B5E0E500C5A07
:103E22001180FFFFD8900E320D320F2EEBD7FFFF1D
:103E32001050D8B404D0116C121ED8B0122AFFFF51
:103E420011C00BF012C00CF01200FFFFFFFF155063
:103E5200146E136A17501324096E185014200A6E38
:103E620009C00BF00AC00CF0000E0E6E0A0E0D6EA9
:103E720099EC1EF00BC007F00CC008F009C00BF063
:103E82000AC00CF0000E0E6E0A0E0D6EDBEC1EF078
:103E92000BC009F00CC00AF009C00BF00AC00CF00C
:103EA200000E0E6E0A0E0D6E99EC1EF00BC005F0A0
:103EB2000CC006F009C00BF00AC00CF0000E0E6E2A
:103EC2000A0E0D6EDBEC1EF00BC009F00CC00AF0FE
:103ED20009C00BF00AC00CF0000E0E6E0A0E0D6E39
:103EE20099EC1EF00BC003F00CC004F009C00BF0FB
:103EF2000AC00CF0000E0E6E0A0E0D6EDBEC1EF008
:103F02000BC009F00CC00AF009C001F00AC002F0AF
:103F12001200FFFFFFFF000E956E000E936E92805F
:103F2200810EC26ECE0EC16E8194000E0C6E0A0E10
:103F32000B6E56EC1EF0380E04EC1EF0000E0C6EEA
:103F42000A0E0B6E56EC1EF00E0E04EC1EF0000E66
:103F52000C6E0F0E0B6E56EC1EF0010E04EC1EF0F2
:103F6200000E0C6E0F0E0B6E56EC1EF0060E04ECDD
:103F72001EF0000E0C6E0F0E0B6E56EC1EF0840E31
:103F820004EC1EF0000E0C6E0F0E0B6E56EC1EF0C3
:103F9200FFFF24EC1EF027EC1FF00150300F14EC51
:103FA2001EF0000E0C6E030E0B6E76EC1EF003502C
:103FB200300F14EC1EF0000E0C6E030E0B6E76EC3E
:103FC2001EF00550300F14EC1EF0000E0C6E030EA6
:103FD2000B6E76EC1EF00750300F14EC1EF0010E43
:103FE2000C6E5E0E0B6E56EC1EF0010E04EC1EF013
:0E3FF200000E0C6E020E0B6E76EC1EF0C9D7A0
:020000040020DA
:08000000FFFFFFFFFFFFFFFF00
:020000040030CA
:0E000000FF210D0EFF0180FF0FC00FE00F402B
:00000001FF
