:0600000000F0BAEF1FF052
:103F7200FFFF0001BDEF1FF0FFFF000E946E000E69
:103F8200956E9290810EC26ECE0EC16EFFFF000E34
:103F9200026E010E016EDDEC1FF0C284FFFFC2B49F
:103FA200FDD7C3CF82FFC4CF83FF000E026EFA0E8D
:103FB200016EDDEC1FF0EAD7FFFF000E046E000E6B
:103FC200036E12D0FFFF000E066E000E056EFFFF9D
:103FD200054A062A06BEFBD7065004E1050E055C1B
:103FE200D8A0F5D7034A042AFFFF0150035C025010
:0E3FF2000458D8B01200FFFFE5D7FFFFFFFF15
:020000040020DA
:08000000FFFFFFFFFFFFFFFF00
:020000040030CA
:0E000000FF270F0FFF0185FF0FC00FE00F401D
:00000001FF
